S01600004272617A6F20526F626F7469636F2E73726563AF
S11300000C9434000C9451000C9451000C94510045
S11300100C9473030C9451000C9451000C945100F3
S11300200C9451000C9451000C9451000C94510008
S11300300C9451000C9451000C9451000C945100F8
S11300400C9451000C9451000C9450050C945100E4
S11300500C9451000C94B4000C9451000C94510075
S11300600C9451000C94510011241FBECFEFD8E022
S1130070DEBFCDBF11E0A0E0B1E0EAE2FCE002C0E7
S113008005900D92A830B107D9F721E0A8E0B1E0BE
S113009001C01D92A332B207E1F70E9466030C94DB
S11300A013060C94000010927C0010927A008130A8
S11300B019F0823039F00BC0ECE7F0E08081806405
S11300C0808305C0ECE7F0E08081806C8083613040
S11300D029F4ECE7F0E0808180628083403109F10B
S11300E038F4443091F04830B1F0423089F507C01B
S11300F0403419F1403839F1403251F518C0EAE77B
S1130100F0E080818160808323C0EAE7F0E08081B1
S1130110826080831DC0EAE7F0E080818360808391
S113012017C0EAE7F0E080818460808311C0EAE7C9
S1130130F0E08081856080830BC0EAE7F0E0808195
S11301408660808305C0EAE7F0E080818760808371
S1130150EAE7F0E080818068808380818860808322
S113016008958093110108951F920F920FB60F9274
S113017011242F938F939F93EF93FF9380911001FA
S1130180811105C08091790080930F013EC0809158
S11301901001813029F48091790080930E0135C0DB
S11301A080911001823029F48091790080930D01AF
S11301B02CC080911001833029F4809179008093C0
S11301C00C0123C080911001843029F480917900BE
S11301D080930B011AC080911001853029F480911D
S11301E0790080930A0111C080911001863029F4AE
S11301F0809179008093090108C0809110018730B3
S113020021F48091790080930801809110018F5F1F
S11302108093100180911001883010F01092100129
S1130220809111012091100190E002C0959587956D
S11302302A95E2F780FFE9CFECE7F0E08081909126
S11302401001807F892B8083EAE7F0E0808180645D
S11302508083FF91EF919F918F912F910F900FBE0B
S11302600F901F901895F999FECF92BD81BD60BD86
S11302708FB384608FBB8FB382608FBB0895F9996D
S1130280FECF92BD81BD8FB381608FBB80B50895D1
S1130290E8E6F0E0808182608083ECE6F0E0808133
S11302A0816080830895E1E6F0E080E8808384E063
S11302B080830E94EA0448E061E081E00E945300E8
S11302C080EF0E94B100EAE7F0E0808180648083DF
S11302D043EC59E068E070E080E00E94EC0380E0C9
S11302E00E943E0480E00E94590460E470E080E0D3
S11302F00E94740480E00E94B80480E00E94D1044B
S11303008AB180678AB98BB18F788BB987B18E7FB8
S113031087B988B1816088B90E94480180E090E083
S11303200E943F018093140181E090E00E943F010C
S11303308093130182E090E00E943F0180931201B8
S113034090911401953010F01092140190911301C2
S1130350943010F010921301843010F010921201B6
S11303600895282F30E0A1EEB0E00E94B8052FEFE9
S113037030E040E050E00E949605C901855B9F4F44
S11303800895282F30E0A4EBB0E00E94B8052FEFC9
S113039030E040E050E00E949605C90188589F4F24
S11303A00895CF92DF92EF92FF92282F30E0A9E2D6
S11303B0B0E00E94B805C12CD12C7601CA94A701E3
S11303C096010E949605ADE4B0E00E94CE05625A03
S11303D07F4B8F4F9F4FA70196010E949605C9013D
S11303E0FF90EF90DF90CF900895CF92DF92EF923D
S11303F0FF92282F30E0A5E3B0E00E94B805C12C9D
S1130400D12C7601CA94A70196010E949605ABE40B
S1130410B0E00E94CE0562557A4E8F4F9F4FA701E0
S113042096010E949605C901FF90EF90DF90CF904E
S11304300895CF9380911801882309F450C0109235
S1130440180180911B01823409F042C0C0911C0143
S1130450C0538EE191E00E94ED05C13069F481E062
S1130460809316018BB180618BB98BB18F7D8BB971
S11304708BB18F7B8BB933C0C23079F481110DC03D
S113048082E0809316018BB180628BB98BB18F7E31
S11304908BB98BB18F7B8BB922C0C23051F48130C0
S11304A041F4809116018230D1F481E080931501EA
S11304B016C0C330A1F483E0809316018BB180642D
S11304C08BB98BB18F7E8BB98BB18F7D8BB907C004
S11304D080911B01833519F481E080931701CF913A
S11304E00895809116018130F1F480910B010E94EE
S11304F0B1010E94540480910A010E94C1010E942A
S11305006F04809109010E94D1010E94CE04809160
S113051008010E94F5010E94E70483EC99E0019729
S1130520F1F700C000000895FF920F931F93CF933B
S1130530DF9380911601823009F058C08091150133
S1130540882309F453C01092150180911401882363
S113055009F44CC0C0911201D0E02496CC0FDD1FE9
S1130560CC0FDD1FCE010E943F01F82ECE01019673
S11305700E943F01082FCE0102960E943F01182FCE
S1130580CE0103960E943F01C82F8F2D0E94B10116
S11305900E945404802F0E94C1010E946F04812F85
S11305A00E94D1010E94CE048C2F0E94F5010E946A
S11305B0E70480E091E00E940605809112018F5FBC
S11305C00E94190583E091E00E94060580911201C2
S11305D090E001966091140170E00E94820580937E
S11305E01201682F82E090E00E943301DF91CF91E5
S11305F01F910F91FF900895CF938091160183303E
S113060009F062C080911701882309F45DC010923B
S11306101701C0911C01C0538EE191E00E94ED05C9
S1130620C13091F4282F30E0AFEFB0E00E94B8055C
S113063024EB30E040E050E00E949605822F0E94B7
S1130640B1010E94540440C0C230A1F49927DC01D6
S1130650AF55B1092FEF30E00E94C70525E530E022
S113066040E050E00E949605822F0E94C1010E9442
S11306706F042AC0C330A1F49927DC01A659B1093B
S11306802FEF30E00E94C7052EE130E040E050E05B
S11306900E949605822F0E94D1010E94CE0414C0AC
S11306A0C43091F49927DC01D4972FEF30E00E94F5
S11306B0C70521E230E040E050E00E949605822F19
S11306C00E94F5010E94E704CF910895F8940E94D6
S11306D0530178940E9419020E9471020E949402AC
S11306E00E94FC02F7CF1F920F920FB60F921124B3
S11306F02F933F934F935F936F937F938F939F9326
S1130700AF93BF93CF93DF93EF93FF93309951C08F
S113071080911601823009F44CC0C0911301D0E0DD
S11307202496CC0FDD1FCC0FDD1F60910B01CE0191
S11307300E94330160910A01CE0101960E943301A7
S113074060910901CE0102960E9433016091080173
S1130750CE0103960E9433018091130190E001962B
S113076083709078992324F401978C6F9F6F01967E
S11307708093130180911401843018F48F5F809367
S113078014016091140180E090E00E9433016091B3
S1130790130181E090E00E94330185E091E00E9422
S11307A00605809114010E94190583E091E00E94DE
S11307B00605FF91EF91DF91CF91BF91AF919F918A
S11307C08F917F916F915F914F913F912F910F90F6
S11307D00FBE0F901F901895109280001092810008
S11307E081110BC0E0E8F0E0808182608083E1E861
S11307F0F0E08081886180830CC0813051F4E0E8AE
S1130800F0E0808182608083E1E8F0E080818061B3
S1130810808360347105E1F038F46130710561F072
S11308206830710579F025C0611581E07807B1F071
S113083061157440C9F01DC0E1E8F0E08081816079
S1130840808317C0E1E8F0E080818260808311C07A
S1130850E1E8F0E08081836080830BC0E1E8F0E0B0
S113086080818460808305C0E1E8F0E08081856058
S113087080835093870040938600089594B19260DA
S113088094B9E0E8F0E090819F739083811104C0F3
S11308908081806880830895813029F4E0E8F0E065
S11308A08081806C80830895909389008093880070
S11308B0089594B1946094B9E0E8F0E090819F7C4D
S11308C09083811104C08081806280830895813087
S11308D029F4E0E8F0E080818063808308959093B8
S11308E08B0080938A0008951092B0001092B1009A
S11308F0811106C0E0EBF0E080818360808307C053
S1130900813029F4E0EBF0E0808181608083603401
S11309107105E1F038F46130710561F068307105FA
S113092079F00895611581E07807B1F0611574409C
S1130930C9F00895E1EBF0E080818160808308953F
S1130940E1EBF0E08081826080830895E1EBF0E0E8
S11309508081836080830895E1EBF0E0808184608E
S113096080830895E1EBF0E08081856080830895C1
S113097094B1986094B9E0EBF0E090819F73908318
S1130980811104C08081806880830895813029F4B6
S1130990E0EBF0E08081806C808308958093B30065
S11309A008959AB198609AB9E0EBF0E090819F7C49
S11309B09083811104C08081806280830895813096
S11309C029F4E0EBF0E080818063808308958093D4
S11309D0B40008958AB18E7F8AB98AB182608AB9D7
S11309E01092C00088E98093C10086E08093C20021
S11309F08CE090E09093C5008093C400089590919A
S1130A00C00095FFFCCF8093C60008950F931F93F9
S1130A10CF938C01C0E003C00E94FF04CF5FF801B4
S1130A20EC0FF11D80818111F7CFCF911F910F91B0
S1130A300895CF93DF9300D000D0CDB7DEB799E20D
S1130A40899F912D112492959F7020E3290F29836A
S1130A50282F34E6939F201911249DEC299F212DE2
S1130A601124269526952695205D2A83899F912D0C
S1130A701124969596959695990F292F220F220F5A
S1130A80920F891B805D8B831C82CE0101960E948C
S1130A9006050F900F900F900F90DF91CF9108955E
S1130AA01F920F920FB60F9211248F939F93EF937F
S1130AB0FF938091C60080931A018A3061F4E0911B
S1130AC01901F0E0E55EFE4F108281E08093180189
S1130AD0109219010EC090911901973050F4E091D1
S1130AE0190191E09E0F90931901F0E0E55EFE4F2D
S1130AF08083FF91EF919F918F910F900FBE0F9084
S1130B001F90189597FB072E16F4009407D077FDD5
S1130B1009D00E94D90507FC05D03EF49095819533
S1130B209F4F0895709561957F4F0895A1E21A2E05
S1130B30AA1BBB1BFD010DC0AA1FBB1FEE1FFF1F7D
S1130B40A217B307E407F50720F0A21BB30BE40BCD
S1130B50F50B661F771F881F991F1A9469F7609514
S1130B607095809590959B01AC01BD01CF010895CE
S1130B70A29FB001B39FC001A39F700D811D1124DA
S1130B80911DB29F700D811D1124911D08950E9425
S1130B90B805B7FF0895821B930B08950E94B8050A
S1130BA0A59F900DB49F900DA49F800D911D1124BD
S1130BB00895AA1BBB1B51E107C0AA1FBB1FA617A0
S1130BC0B70710F0A61BB70B881F991F5A95A9F7F2
S1130BD080959095BC01CD010895FC018827992743
S1130BE0E89421912032E9F3293010F02E30C8F333
S1130BF02B3241F02D3239F4689404C00E940B0664
S1130C00820F911D219120532A30C0F31EF4909538
S1130C1081959F4F08957AE0979F902D879F802D0F
S10D0C20910D11240895F894FFCFFC
S10B0C2A503A000A00433A00AD
S9030000FC
